:02000002D0002C
:1040000000400D0078630D00000006000D00050162
:0840100004017E050000000020
:04401800605D0D00DA
:10401C0009480A49884208B505D0094A824202D0AB
:10402C00121A01F0B9FD0748074A0021121A01F0D3
:10403C00BEFD014808BD00BFB4DE0320D0620D00F8
:10404C0034DF032034DF0320F0E7032070B500F0E9
:10405C000DFE074C074BE41AA40800251E46A5428A
:10406C0004D056F8253098470135F8E770BD00BFED
:10407C00C8620D008C620D0000F054B808B500F059
:10408C005BF8BDE8084000F0BFBD00F0C3BB00F01A
:10409C00C9BB00F0C7BB0078B0FA80F0400970478C
:1040AC0001230370704710B50446043000F038FC4F
:1040BC00204610BD10B504463C3000F031FC04F134
:1040CC00280000F02DFC204600F02AFC204610BDF4
:1040DC0038B584690A4B036005467CB16368013BC3
:1040EC0063605BB9236820469B689847A368013BD3
:1040FC00A3601BB923682046DB689847284638BD67
:10410C0094600D0010B50446FFF7E2FF204610BD89
:10411C0010B50446FFF7DCFF20461C2101F0DFFB45
:10412C00204610BD08B500F0A5FE4FF41651BDE8B1
:10413C00084000F093BE000073B5234E00F0FEF96A
:10414C00336883423DD8214C214D00F093FE00F0A2
:10415C009AFC00F08FFE1F4900F0A1FC1E4920467E
:10416C0000F038FC50231D49A36304F1280000F033
:10417C0031FC1B4904F13C0000F02CFC194B009362
:10418C002A46194B1948214600F0A0F800F072FE9F
:10419C00174900F071FC00F06DFE0A22296800F04E
:1041AC00D9FC00F067FE134900F066FC00F062FEDB
:1041BC00696800F074FC00F0C1F900F51C50103077
:1041CC00306002B070BD00BFB4DE032068E3032092
:1041DC0054E30320745D0D00905D0D009F5D0D0098
:1041EC00B45D0D00C35D0D00B8DE032038DF032085
:1041FC00C75D0D00E65D0D0070B5174C174E184DE0
:10420C00204600F039F82046164C1749324601F08A
:10421C0061FB2946204600F0CAFB04F1100000F0B7
:10422C0079FD294604F1280000F0C1FB294604F170
:10423C003C0000F0BCFB20460C4C0D49324601F012
:10424C0049FB2946201D00F0B2FB324620460949A5
:10425C00BDE8704001F03EBB38DF032034DF0320A3
:10426C001E5E0D0068E3032011410D0054E3032092
:10427C00C1400D00B3400D0010B5044601F046FAE4
:10428C00204610BD38B50446154600F0F5FB05492F
:10429C00204600F0F1FB29462046BDE8384000F0EE
:1042AC00FEBB00BF165F0D0038B50446154600F086
:1042BC00E3FB0549204600F0DFFB294620460A2295
:1042CC00BDE8384000F046BC165F0D002DE9F04FFC
:1042DC000D461E464FF0FF3389B004461360002193
:1042EC002846924600F087FBD5F838C060B929689B
:1042FC00BCF1000F02D01FFA8CF200E05022002318
:10430C00204601F053F811E0704B029305F1140EA6
:10431C00BEE80F0003AF0FC7DEF800303B701FFA8A
:10432C008CF2002302A9204601F0C2F8003018BF1D
:10433C00012018B9204601F035F9C3E01299204646
:10434C0000F09AFB6249204600F096FBA96A2046D1
:10435C0000F092FB5F49204600F08EFB5E495F4AFD
:10436C002046FFF78FFF0021284600F044FB20B9C0
:10437C002A685B492046FFF785FF05F13C070021C1
:10438C00384600F038FB08B96A6C05E055491298BC
:10439C0001F03EFC024618B953492046FFF784FF52
:1043AC005EB1316849B17268204612B1FFF76AFFFD
:1043BC0001E000F074FB0836F3E7204600F063FBE5
:1043CC00204600F01BFF0021384600F014FB18B902
:1043DC00E96B204600F063FB04F11C0B4FF4806288
:1043EC000021584601F0E3FB00F0A8F8009000F023
:1043FC00A5F8B5F84C8041F288330026B8F1000FCF
:10440C0008BF98464FF001093546204601F0E2F806
:10441C00C0B3204600F087FFC7B200F08FF80090C1
:10442C00B9F1000F18D00A2F11D10A2E13D104F1B3
:10443C00250001F09FFB4FF00009CAF800004FF473
:10444C0080620021584601F0B2FB4D46DDE70D2F8E
:10445C0018BF3E4600E03E4640F2FE339D4202D875
:10446C0063191F770CE040F2FF339D4208D14FF0E7
:10447C00000384F81B34204601F094F8012702E075
:10448C000135C2E7074600F059F8009BC31A0193A7
:10449C0027B9434502D8C82000F078FB204600F02D
:1044AC00AEFE20B1019B434501D8002FADD0204674
:1044BC0001F078F8B9F1000F04D159460AF1040063
:1044CC0000F088FA09B0BDE8F08F00BF9C5F0D00CA
:1044DC00125F0D00135E0D00255E0D001F5E0D00BA
:1044EC00305E0D00445E0D00355E0D0008B5024BCC
:1044FC001B689B68019308BD6802030008B5024B5A
:10450C001B68DB68019308BD6802030008B5024B09
:10451C001B68DB69019308BD3002030008B5024B30
:10452C001B685B69019308BD6C02030008B5024B64
:10453C001B685B68019308BD1802030008B5024BA9
:10454C001B685B69019308BD1802030008B5024B98
:10455C001B689B68019308BD4802030008B5024B19
:10456C001B681B69019308BD4802030008B5024B88
:10457C001B685B69019308BD4802030008B5024B38
:10458C001B681B6B019308BD4802030008B5024B66
:10459C001B685B6C019308BD4802030008B5024B15
:1045AC001B685B69019308BD6402030008B5024BEC
:1045BC001B681B6A019308BD6402030008B5024B1B
:1045CC001B689B6A019308BD6402030008B5024B8B
:1045DC001B681B68019308BD3C02030008B5024B25
:1045EC001B68DB68019308BD3C02030008B5024B55
:1045FC001B681B69019308BD3C02030008B5024B04
:10460C001B685B69019308BD3C02030008B5024BB3
:10461C001B689B69019308BD3C02030008B5024B63
:10462C001B68DB69019308BD3C02030008B5024B13
:10463C001B689B6A019308BD3C02030008B5024B42
:10464C001B689B69019308BD3802030008B5024B37
:10465C001B68DB69019308BD3802030008B5024BE7
:10466C001B681B6A019308BD3802030008B5024B96
:10467C001B689B6A019308BD3802030008B5024B06
:10468C001B681B6B019308BD3802030008B5024B75
:10469C001B689B6B019308BD3802030008B5024BE5
:1046AC001B681B68019308BD4C02030008B5024B44
:1046BC001B685B68019308BD4C02030008B5024BF4
:1046CC001B681B69019308BD4C02030008B5024B23
:1046DC001B685B69019308BD4C02030008B5024BD3
:1046EC001B689B69019308BD4C02030008B5024B83
:1046FC001B68DB69019308BD4C02030008B5024B33
:10470C001B681B6A019308BD4C02030008B5024BE1
:10471C001B681B6D019308BD6002030008B5024BBA
:10472C001B685B68019308BD2002030008B5024BAF
:10473C001B685B69019308BD2002030008B5034B9D
:10474C001B68D3F88830019308BD000020020300D9
:10475C0008B5034B1B68D3F89430019308BD0000D7
:10476C002002030008B5024B1B685B68019308BD6F
:10477C004002030008B5024B1B689B68019308BDFF
:10478C004002030008B5024B1B68DB68019308BDAF
:10479C004002030008B5024B1B681B69019308BD5E
:1047AC004002030008B5024B1B685B69019308BD0E
:1047BC004002030008B5024B1B689B69019308BDBE
:1047CC004002030008B5024B1B68DB69019308BD6E
:1047DC004002030008B5024B1B681B6A019308BD1D
:1047EC004002030008B5024B1B681B6B019308BD0C
:1047FC004002030008B5024B1B685B6B019308BDBC
:10480C004002030008B5024B1B68DB6B019308BD2B
:10481C004402030008B5024B1B681B68019308BDDA
:10482C001C02030008B5024B1B685B68019308BDB2
:10483C001C02030008B5024B1B689B68019308BD62
:10484C001C02030008B5024B1B68DB6B019308BD0F
:10485C001C020300002211464068FFF7BBBF002278
:10486C0011464068FFF7C6BF00224068FFF7BABF89
:10487C00002281F001014068FFF7A4BF00231A4613
:10488C0019464068FFF796BF00231A461946406840
:10489C00FFF788BF002211464068FFF77BBF00225C
:1048AC0011464068FFF766BF002202214068FFF7FF
:1048BC0069BF00231A464068FFF754BF024B03221E
:1048CC005A60024A1A607047B8E30320545E0D0028
:1048DC00704710B51021044601F001F8204610BDB8
:1048EC0070B5084B0360044600250E4640F80C5F7B
:1048FC00FFF744FE30462671FFF708FEA560204600
:10490C0070BD00BF885E0D00044B00204FF6FF7297
:10491C00187058809A80FFF701BF00BFC0E30320D6
:10492C0010B504460068FFF77DFF204610BD10B59A
:10493C000446006808B1FFF775FF00232360A360ED
:10494C00636010BD38B504460D4600680131FFF7B1
:10495C0071FF10B184E82100012038BD10B5036847
:10496C00044613B143688B4207D22046FFF7EAFF97
:10497C0020B1A3680BB922681370012010BD70B56B
:10498C000E46114604461546FFF7E8FF18B92046B7
:10499C00FFF7CDFF09E02A463146A560206801F0FB
:1049AC00FBF82268A3680021D154204670BD38B5AD
:1049BC000023044603604360836003730D4639B1E2
:1049CC00084601F02FF9294602462046FFF7D7FF8B
:1049DC00204638BD38B505460C4641B1084601F0B5
:1049EC0021F9214602462846FFF7C9FF01E0FFF7EF
:1049FC009EFF284638BD08B582680B4612B919B916
:104A0C00012008BD11B90368187802E0006801F0B4
:104A1C00FFF8B0FA80F0400908BD000002480023FE
:104A2C000360FFF7B3BD00BFC8E30320F8B506462B
:104A3C000D468F180024BD420CD0336815F8011BAD
:104A4C009B6830469847002801DB0444F3E7002CB0
:104A5C0008BF04462046F8BD70B505460C4608460E
:104A6C0049B101F0DFF82B68024621462846DB6885
:104A7C00BDE87040184770BD08B5FFF7EDFF08BDE5
:104A8C0003689B68184738B50D210546FFF7F8FFFA
:104A9C000A2104462846FFF7F3FF204438BD38B5F9
:104AAC000546FFF7D9FF04462846FFF7ECFF2044E4
:104ABC0038BD30B58BB00B4600218DF82410012A7F
:104ACC0098BF0A220DF12304B3FBF2F505FB123358
:104ADC0003F0FF03092B94BF30333733DBB221468D
:104AEC0004F801392B46002DEED1FFF7B5FF0BB0C2
:104AFC0030BD10B42AB903685DF8044B9B68C9B289
:104B0C001847D2B25DF8044BFFF7D3BFFFF7F1BFE4
:104B1C002DE9F04107460E4615462AB90368C9B27D
:104B2C009B68BDE8F04118470A2A02D1002901DA36
:104B3C0004E0D2B2BDE8F041FFF7BBBF2D21FFF777
:104B4C009FFF2A46044671423846FFF7B2FF2044C5
:104B5C00BDE8F08138B50546FFF7DAFF0446284674
:104B6C00FFF791FF204438BD014B024A1A60704791
:104B7C00CCE30320035F0D00024B1A68024B1A6052
:104B8C00704700BFC8DE0320D0E303200021FFF7ED
:104B9C00CDBD10B58368044613B103220146984776
:104BAC00204610BD10B50446FFF7F3FF204610BD9C
:104BBC000348044A04490023836000F08BBE00BF05
:104BCC00D4E3032034DF0320B14B0D0008B50C4BAC
:104BDC0033B100F04FF903681B699847002809DCD2
:104BEC00084B63B100F010FA03681B699847002862
:104BFC0003DC08BDAFF30080F2E7AFF3008008BD23
:104C0C00000000000000000008B5FFF7DFFFFFF711
:104C1C0095FC014B186008BD4CE7032007B5002339
:104C2C0000931A466FF07701FFF792FD03B05DF821
:104C3C0004FB000007B543880A2B08D0502B09D180
:104C4C00094B1B683BB103B05DF804EB1847FFF749
:104C5C00E5FF06E0002300931A466FF07701FFF79B
:104C6C0077FD03B05DF804FBE4E3032010B5FFF718
:104C7C005DFC044600F0A4FF074B13B12046AFF3D4
:104C8C00008000210448FFF7BDFD00210348BDE86A
:104C9C001040FFF753BD00BF00000000414C0D0059
:104CAC00704710B51821044600F019FE204610BDBF
:104CBC00F0B5037D062B8DB00E4600F104074FF0C6
:104CCC00000402D000F1080518E00CAD394605F8D7
:104CDC00304D2F232A460A20FFF760FC284600F0AF
:104CEC00A1FF33680246DB682946304698470FE03F
:104CFC0024B12E213046FFF7C3FE044415F8011DE4
:104D0C000A223046FFF702FFBD420444F0D1204690
:104D1C000DB0F0BD10B5054B0446112240F8043B14
:104D2C00002100F044FF204610BD00BF9C5F0D0029
:104D3C000346074A10B543F8042B01F1100251F851
:104D4C00044B43F8044B9142F9D10A781A7010BD08
:104D5C009C5F0D00037D042B01D1406808E0062BFD
:104D6C000AD1436853B9836843B9C36833B900693E
:104D7C00003018BF01207047002070470120704799
:104D8C0010B59DF8084044EA032343EA024242EA84
:104D9C00016104234160037510BD37B50D788B7824
:104DAC004A78C97800912946FFF7EAFF03B030BD75
:104DBC0041747047704708B50021007CFFF78EFCEA
:104DCC0030EA200028BF4FF0FF3008BD08B50121A4
:104DDC00007CFFF783FC30EA200028BF4FF0FF3047
:104DEC0008BD08B5007CFFF771FC20EAE07008BD37
:104DFC0008B5007CFFF762FC20EAE07008BD007C7F
:104E0C00FFF77CBC10B51421044600F068FD204669
:104E1C0010BD38B50446007C0D46FFF757FC002842
:104E2C0001DC607C28B12946207CFFF75FFC20EA7E
:104E3C00E07038BD10B50446002363604FF47A73FC
:104E4C00A360054B2360012308462174637411464B
:104E5C00FFF724FC204610BDB05F0D000022007C43
:104E6C00FFF724BC10B514220446002100F09FFE6D
:104E7C00204610BD30B50E4D87B001A8FFF7F2FFEC
:104E8C00296811F0010410D12846FFF704F960B12C
:104E9C0001AA21460748FFF7CDFF2846FFF700F986
:104EAC00054A0649034800F015FD024807B030BD1D
:104EBC00E8E30320ECE3032034DF0320C14D0D00B5
:104ECC00002211464068FFF765BC0022114640687D
:104EDC00FFF780BC002211464068FFF78BBC002214
:104EEC004068FFF77FBC002281F001014068FFF7AA
:104EFC0069BC00231A4619464068FFF75BBC0023C7
:104F0C001A4619464068FFF74DBC0022114640680E
:104F1C00FFF730BC002202214068FFF733BC0023AE
:104F2C001A464068FFF71EBC38B5084C28252A469F
:104F3C000021204600F03BFE4FF0FF336360044B32
:104F4C00258004225A60034A1A6038BD08E4032005
:104F5C0000E40320E05F0D0070474174704708B512
:104F6C00007CFFF763FB20EAE07008BD08B5007C0D
:104F7C00FFF73CFB20EAE07008BD08B5007CFFF7AA
:104F8C0045FB30EA200028BF4FF0FF3008BD08B5C4
:104F9C00007CFFF733FB30EA200028BF4FF0FF30D6
:104FAC0008BD007CFFF73ABB10B51421044600F095
:104FBC0096FC204610BD70B5457C04460E4625B9BE
:104FCC00007CFFF733FB002805DD3146207CBDE873
:104FDC007040FFF703BB284670BD000010B50446B7
:104FEC0008461146002262604FF47A72A260054AAC
:104FFC0022600122207462741A46FFF7E7FA2046F9
:10500C0010BD00BF14600D0038B50C4D296811F0AF
:10501C00010411D12846FFF73EF868B1084A094B44
:10502C0009482146FFF7DAFF2846FFF739F8074A07
:10503C000749054800F04EFC034838BDC8E403207E
:10504C00CCE4032044E4032030E4032034DF0320C9
:10505C00654F0D00002211464068FFF7BBBB0022D4
:10506C0011464068FFF7C6BB00224068FFF7BABB89
:10507C00002281F001014068FFF7A4BB00231A460F
:10508C0001214068FFF796BB00231A461946406879
:10509C00FFF788BB002211464068FFF77BBB00225C
:1050AC0011464068FFF766BB002202214068FFF7FB
:1050BC0069BB00231A464068FFF754BB38B5054658
:1050CC0088B104684CB1A3681BB103222146204669
:1050DC0098471021204600F002FC28461421BDE818
:1050EC00384000F0FCBB38BD10B103685B68184752
:1050FC00704710B503680446BBB15868FFF726FA31
:10510C0078B923685A7C12B95868FFF727FA2368D4
:10511C005868FFF72BFA20680023236028B1FFF7AB
:10512C00CDFF206808B1FFF7C9FF204610BD000075
:10513C0038B50C4B03600446D0F8CC0108B1FEF72F
:10514C00A8FFD4F8C45135B12846FFF7D2FF04218B
:10515C00284600F0C4FBA06808B1FFF7C5FF204645
:10516C0038BD00BF44600D0038B50E4C0E4B2360AB
:10517C000025022304F5E4706360A560C4F8C451F3
:10518C00C4F8C851FFF702FA084BC4F8CC5184F8A4
:10519C00D05123602046064A0649BDE8384000F04D
:1051AC0099BB00BF50E50320F8600D0044600D0072
:1051BC0034DF03203D510D0037B502AC036804F811
:1051CC00011DDD6B01224FF0FF332146A84703B0D0
:1051DC0030BD10B40368DC6B4FF0FF33A4465DF8B0
:1051EC00044B604737B502AC036804F8011DDD6B56
:1051FC00214613460122A84703B030BD704738B58D
:10520C0043691A68002A044605DAB3F88620B3F815
:10521C0084309A4201D001250BE003681B69984742
:10522C00002814BF0125002503D123682046DB6A22
:10523C009847284638BD43691868C043C00F70476B
:10524C0070470020704710B51421044600F047FB4E
:10525C00204610BDFEF71BBF7FB5164600224260EC
:10526C00029203925A1C04460D4608D04FF47A72EF
:10527C00B3FBF2F1029102FB11314A4303926069D4
:10528C000823009341F205026B4440F6FF7100685D
:10529C00FFF7D4F9002808DB606900233246294661
:1052AC000068FFF7EBF9002804DAFFF7CBFA036884
:1052BC006360002004B070BD10B5036804469B68A1
:1052CC009847A368013BA3602BB923682046DB6891
:1052DC00BDE81040184710BD70B504464D69054B2C
:1052EC0044F8043B8C3506460FCD0FC42B68237055
:1052FC00304670BD9C5F0D0010B54369B3F8862035
:10530C00B3F884309A42044605D06269B2F884300E
:10531C001344187910BD03681B6998470028F4D111
:10532C004FF0FF3010BD10B54369B3F88620B3F8C9
:10533C0084309A42044608D06269B2F88430591C11
:10534C001344A2F88410187910BD03681B699847A0
:10535C000028F1D14FF0FF3010BDF8B54369174666
:10536C00B3F88620B3F884309A4205460E4606D12F
:10537C0003681B69984710B94FF0FF3414E0696952
:10538C00B1F88430B1F88640E41ABC4228BF3C46E0
:10539C00194422460431304600F0FEFB6A69B2F82B
:1053AC0084302344A2F884302046F8BD2DE9F04324
:1053BC009846036893B0DB6A0D4606461746984735
:1053CC0012AB002443F8484D224621462846FFF7ED
:1053DC0095F8814600283DD1009B002B56D05B6987
:1053EC00002B53D006A8FFF795FC009B5C696378F3
:1053FC00022B01D1211D13E00A2B14D11122494695
:10540C0001A800F0D4FBA36833BBE36823BB4FF6C1
:10541C00FF702569FFF7CAF885421DD104F114010C
:10542C0006A8FFF7BAFC06A8FFF794FC00282DD0BD
:10543C00336807ADD3F82090184B0C930FCD0DACFF
:10544C000FC42B6823703A4643460CA93046C84714
:10545C0081461BE0A14619E004F1080301AD1834A4
:10546C00186859682A4603C20833A3421546F7D177
:10547C00062301A90CA80DAD8DF81430FFF758FCCC
:10548C000FCD07AC0FC42B682370CCE70098FFF747
:10549C002DF8484613B0BDE8F08300BF9C5F0D00AB
:1054AC0042690023A2F884304269A2F88630704722
:1054BC002DE9F0411E4603680C468AB0DB6A0546AE
:1054CC0017469847237DD5F81480042B0CBF022077
:1054DC000A2006220121FFF7D9F8C8F800006B69F1
:1054EC001B68002B18DB2846FFF7DAFFD6B1002328
:1054FC0003A9F0B20393ADF81030FFF70FF858B9C9
:10550C0068690623009341F20B0203AB40F6FF716E
:10551C000068FFF793F828B12B682846DB6A002453
:10552C0098473BE01C263246002103A800F03FFBC5
:10553C00237D8DF80C60042B0CD1022338468DF89A
:10554C000D30FFF73BF8ADF80E006068FFF72EF852
:10555C00049013E00A2338468DF80D30FFF72EF82F
:10556C0005AEADF80E00231D04F114071868596838
:10557C00324603C20833BB421646F7D16B691C2274
:10558C0003A91868FFF76AF80028C5D104340FCCBA
:10559C006D698C350FC523682B70012420460AB029
:1055AC00BDE8F08110B5436904461868002801DB9A
:1055BC00FFF74CF863694FF0FF321A6060691122F3
:1055CC0000218C3000F0F3FA2046BDE81040FFF7C4
:1055DC0067BF000030B54269B2F886308BB0044624
:1055EC001BB1B2F884209A4240D063691868002835
:1055FC003FDBB3F886507F2D3BD8191DC5F18002D7
:10560C0008232944FFF732F800280CDD6369B3F84E
:10561C0086200AB9A3F884206269B2F8863018444F
:10562C00A2F8860025E0FFF70DF903680B2B20D0BC
:10563C00FFF708F903680B2B1BD0202300250293DE
:10564C000395FFF7FFF8036801930E4B009302AA32
:10565C002B460D493220FFF759F863691868FEF79D
:10566C00F5FF63694FF0FF321A6002E0FFF718FF95
:10567C00BBE76269B2F88630B2F88400181A0BB036
:10568C0030BD00BFDF600D00D8600D0010B50023E9
:10569C0004460160A0F88430A0F886308830FFF70B
:1056AC0039FB204610BD00004FF47A7270B5002310
:1056BC008260144A43600260436183610446A02007
:1056CC000E46FEF7E2FC054610B13146FFF7DEFF51
:1056DC001420FEF7DAFC034628B1012242608260F6
:1056EC00094A02600561A0696561A36128B143683C
:1056FC00013B43600BB9FFF7DFFD2046FFF7D0FEFF
:10570C00204670BD94600D0078600D0010B54FF010
:10571C00FF310446FFF7C8FF204610BD10B5044604
:10572C000068002801DBFEF791FF204610BD10B584
:10573C0004692046FFF7F2FF24B12046BDE8104073
:10574C00FEF7A5BC10BD00231A464068FFF70AB847
:10575C00002202214068FFF715B80022114640686C
:10576C00FFF708B8002211464068FFF713B8002372
:10577C001A4619464068FFF715B800231A46194611
:10578C004068FFF717B8002281F001014068FFF76D
:10579C0019B800224068FFF725B80022114640686E
:1057AC00FFF728B8002211464068FFF713B82DE91F
:1057BC00F043002495B016460D460746FFF7AAFAAB
:1057CC00214620220CA8009400F0F1F940230C9300
:1057DC0021466B460CAA3046FEF790FE0446002884
:1057EC0044D1024601216868FEF7D4FF02218046AD
:1057FC0022466868FEF7CEFF009E81462146002EA9
:10580C0034D0002932D17368022B02D00A2B09D074
:10581C002AE0B8F1000F27D0716938460431FFF740
:10582C00BCFA20E0B9F1000F1ED07469112201A856
:10583C0000F0BDF906238DF8143001AD04F1080316
:10584C001834186859682A4603C20833A34215460F
:10585C00F7D101A906A807ADFFF76AFA0FCD3C1DD9
:10586C000FC42B6823700121F669C8E70098FEF776
:10587C003DFE384615B0BDE8F0830000024B034AEC
:10588C001A6000225A60704724E70320F8600D006C
:10589C0070B50C4C0C4E0D4D00212046FFF720F836
:1058AC0020460B4C3246294600F014F801212046C4
:1058BC00FFF716F8324629462046BDE8704000F046
:1058CC0009B800BF2CE7032034DF0320DD480D00AE
:1058DC003CE703200B460146184600F04FB9FEF793
:1058EC00D6BB0000184B1A68D1075CBF01221A60A6
:1058FC00164B1A68D2075CBF01221A60144B1A6847
:10590C00D0075CBF01221A60124B1A68D1075CBF2A
:10591C0001221A60104B1A68D2075CBF01221A6070
:10592C000E4B1A68D0075CBF01221A600C4B1A6828
:10593C00D1075CBF01221A600A4B1A68D2075CBF00
:10594C0001221A60704700BF6CE7032068E7032050
:10595C0064E7032060E703205CE7032058E703209B
:10596C0054E7032050E70320244B1A68D0075CBF90
:10597C0001221A60224B1A68D1075CBF01221A60FF
:10598C00204B1A68D2075CBF01221A601E4B1A68A2
:10599C00D0075CBF01221A601C4B1A68D1075CBF90
:1059AC0001221A601A4B1A68D2075CBF01221A60D6
:1059BC00184B1A68D0075CBF01221A60164B1A6884
:1059CC00D1075CBF01221A60144B1A68D2075CBF66
:1059DC0001221A60124B1A68D0075CBF01221A60B0
:1059EC00104B1A68D1075CBF01221A600E4B1A6863
:1059FC00D2075CBF01221A60704700BF9CE70320EE
:105A0C0098E7032094E7032090E703208CE703201A
:105A1C0088E7032084E7032080E703207CE703204A
:105A2C0078E7032074E7032070E70320244B1A68FF
:105A3C00D0075CBF01221A60224B1A68D1075CBFE9
:105A4C0001221A60204B1A68D2075CBF01221A602F
:105A5C001E4B1A68D0075CBF01221A601C4B1A68D7
:105A6C00D1075CBF01221A601A4B1A68D2075CBFBF
:105A7C0001221A60184B1A68D0075CBF01221A6009
:105A8C00164B1A68D1075CBF01221A60144B1A68B6
:105A9C00D2075CBF01221A60124B1A68D0075CBF98
:105AAC0001221A60104B1A68D1075CBF01221A60E0
:105ABC000E4B1A68D2075CBF01221A60704700BFF8
:105ACC00CCE70320C8E70320C4E70320C0E703208A
:105ADC00BCE70320B8E70320B4E70320B0E70320BA
:105AEC00ACE70320A8E70320A4E70320A0E70320EA
:105AFC00184B1A68D1075CBF01221A60164B1A6842
:105B0C00D2075CBF01221A60144B1A68D0075CBF25
:105B1C0001221A60124B1A68D1075CBF01221A606D
:105B2C00104B1A68D2075CBF01221A600E4B1A6820
:105B3C00D0075CBF01221A600C4B1A68D1075CBFFE
:105B4C0001221A600A4B1A68D2075CBF01221A6044
:105B5C00704700BFECE70320E8E70320E4E70320ED
:105B6C00E0E70320DCE70320D8E70320D4E7032099
:105B7C00D0E703200A22002100F0E2B810B5054C52
:105B8C0013462CB10A4601460220AFF3008010BD2B
:105B9C00204610BD0000000010B5431E0A4491427F
:105BAC0004D011F8014B03F8014FF8E710BD024483
:105BBC000346934202D003F8011BFAE7704700003A
:105BCC0038B5124B1C68A36B0546D3B91820FEF7E9
:105BDC0021FE43F20E33A06303804AF6CD3343809B
:105BEC0041F2342383804EF26D63C3804DF6EC6337
:105BFC000381052343810B23838101220023C0E908
:105C0C000423A36B00221D615A6138BD30DF0320D1
:105C1C0010F8012B11F8013B012A28BF9A42F7D04A
:105C2C00D01A7047034613F8012B002AFBD1181A1F
:105C3C00013870472DE9F04780464048D0F8009075
:105C4C000F463D4615F8014B09EB0400407800F077
:105C5C00080000F0FF0608B12F46F2E72D2C03D107
:105C6C00BD1C7C78012603E02B2C04BF7C78BD1C6A
:105C7C0013B1102B0AD15BE0302C57D1287800F0EF
:105C8C00DF0058284DD16C7810230235002E14BF3C
:105C9C004FF0004C6FF0004C0027BCFBF3FA384679
:105CAC0003FB1ACC09EB040E9EF801E01EF0040F66
:105CBC0001D0303C0BE01EF0030E1BD0BEF1010FE7
:105CCC000CBF4FF0370E4FF0570ECEEB0404A3422F
:105CDC0010DDB7F1FF3F0AD0504506D801D164451D
:105CEC0003DC03FB0040012701E04FF0FF3715F800
:105CFC00014BD7E77B1C0CD1002E4FF0220314BFB5
:105D0C004FF000406FF00040C8F800302AB9BDE8F1
:105D1C00F08706B1404272B107B1691E1160BDE84F
:105D2C00F0873024002BB1D10823AFE70A23ADE76D
:105D3C00302CA3D0AAE7BDE8F08700BFCCDE03204F
:105D4C0013460A46014602480068FFF773BF00BFBE
:105D5C0030DF03201D400D0059400D0085400D0023
:105D6C0089400D00000000004170706C6963617423
:105D7C00696F6E3E095374617274206F66204C6FAC
:105D8C006F702E0077732E757363756265642E6366
:105D9C006F6D002F5061727469636C654469726534
:105DAC0063742E61737078005259414E54524953AA
:105DBC004E4F4A4F594F00474554004170706C6923
:105DCC00636174696F6E3E09526573706F6E7365B3
:105DDC00207374617475733A20004170706C696340
:105DEC006174696F6E3E094854545020526573704B
:105DFC006F6E736520426F64793A2000416363656E
:105E0C007074002A2F2A0020485454502F312E3001
:105E1C000D0A00636C6F736500436F6E6E6563747F
:105E2C00696F6E00484F535400436F6E74656E7407
:105E3C002D4C656E67746800504F53540000000081
:105E4C000000000000000000BF480D00B5480D0028
:105E5C00AB480D00A1480D0095480D0089480D0078
:105E6C007D480D0075480D006B480D0061480D0014
:105E7C00BB570D000000000000000000DD480D00C5
:105E8C00DF480D00626175640053657269616C00D6
:105E9C0053657269616C3100747970650070617260
:105EAC00616D00636D6400696400686E64007374F6
:105EBC00726D0066696C74006C766C006164644889
:105ECC00616E646C65720072656D6F766548616EAB
:105EDC00646C657200656E756D48616E646C65729C
:105EEC0073004A534F4E53747265616D4C6F674823
:105EFC00616E646C657200617070002530313075B4
:105F0C0020005D20002C200028293A2000205B0076
:105F1C00636F6465203D20002569006465746169C8
:105F2C006C73203D200066006C6E00666E00636F23
:105F3C0064650064657461696C006E6F6E650074F5
:105F4C007261636500696E666F007761726E0065E1
:105F5C0072726F720070616E696300616C6C005AD2
:105F6C0000252B3033643A253032750025592D2508
:105F7C006D2D25645425483A254D3A2553257A0034
:105F8C0061736374696D650000000000000000001F
:105F9C00BD4C0D00AD4C0D00AF4C0D0000000000D1
:105FAC0000000000C14D0D00114E0D001F4E0D00E4
:105FBC00394A0D00FD4D0D00C34D0D00D94D0D009E
:105FCC000B4E0D00EF4D0D00BD4D0D0000000000FF
:105FDC00000000002B4F0D00214F0D00174F0D003E
:105FEC00CD4E0D000B4F0D00FF4E0D00F34E0D006E
:105FFC00EB4E0D00E14E0D00D74E0D00BB570D00C2
:10600C000000000000000000654F0D00B54F0D00B2
:10601C00C34F0D00394A0D00794F0D009B4F0D00F9
:10602C00874F0D00AF4F0D00674F0D006B4F0D00EC
:10603C000000000000000000BF500D00B5500D0026
:10604C00AB500D00A1500D0095500D0089500D0066
:10605C007D500D0075500D006B500D0061500D0002
:10606C00BB570D0000000000000000004D520D0059
:10607C0053520D003B570D0061520D004F520D0055
:10608C000000000000000000DD400D001D410D006F
:10609C00C5510D00DF510D00E1550D0033530D00BE
:1060AC0005530D0009520D00BD540D00B9530D00E0
:1060BC0067530D00B1550D000B520D0043520D00EE
:1060CC00F1510D0065520D00E5520D0077697269B2
:1060DC006E670072656376206572726F72203D2068
:1060EC0025640000000000000000000053570D0064
:1060FC005D570D0067570D0071570D007B570D0054
:10610C0087570D0093570D009F570D00A7570D0093
:10611C00B1570D00BB570D0000202020202020205F
:10612C00202028282828282020202020202020203B
:10613C00202020202020202020881010101010104B
:10614C001010101010101010100404040404040497
:10615C000404041010101010101041414141414131
:10616C000101010101010101010101010101010113
:10617C000101010110101010101042424242424223
:10618C0002020202020202020202020202020202E3
:10619C00020202021010101020000000000000008B
:1061AC0000000000000000000000000000000000E3
:1061BC0000000000000000000000000000000000D3
:1061CC0000000000000000000000000000000000C3
:1061DC0000000000000000000000000000000000B3
:1061EC0000000000000000000000000000000000A3
:1061FC000000000000000000000000000000000093
:10620C000000000000000000000000000000000082
:10621C000000000000000000000000000000000072
:10622C000000000000000000000000000000000062
:10623C000000000000000000000000000000000052
:10624C000000000000000000000000000000000042
:10625C000000000000000000000000000000000032
:10626C000000000000000000000000000000000022
:10627C0000000000000000000000000043000000CF
:10628C0005420D00C9480D0015490D00294A0D00A5
:10629C00754B0D00854B0D00BD4B0D00354F0D00A2
:1062AC0075510D0089580D009D580D00F1580D00C9
:1062BC0075590D00395A0D00FD5A0D0000000000F3
:0462CC0000000000CE
:1062D00088130000085E0D000F5E0D000000000036
:1062E000000000008C5F0D0024610D000000000024
:1062F00028620D0048620D0068620D000000000079
:1063000000000000000000000000000088620D0096
:10631000000000000000000000000000000000007D
:10632000000000000000000000000000000000006D
:10633000000000000000000000000000000000005D
:10634000000000000000000000000000D0DE03207C
:10635000FFFFFFFF00000102030405060708090A0A
:106360000B0C0D0E0F101112131415161718191A05
:086370001B1C1D1E1F2028004C
:04637800785634120D
:04000003D000401CCD
:00000001FF
