:02000002D0002C
:1040000000400D00506E0D00000006000D0005017F
:0840100004017E050000000020
:044018002C670D0004
:10401C0009480A49884208B505D0094A824202D0AB
:10402C00121A02F097FA0748074A0021121A02F0F6
:10403C009CFA014808BD00BF64DE0320906D0D00A2
:10404C00FCDE0320FCDE0320F0E7032070B501F05A
:10405C00DBFA074C074BE41AA40800251E46A542C0
:10406C0004D056F8253098470135F8E770BD00BFED
:10407C00846D0D00486D0D0000F0CCB908B500F052
:10408C00F9F9BDE8084001F08DBA00F0C9BE00F0A6
:10409C00CFBE00F0CDBE0078B0FA80F0400970477A
:1040AC0001230370704710B50446043001F01AF870
:1040BC00204610BD10B504463C3001F013F804F155
:1040CC00280001F00FF8204601F00CF8204610BD36
:1040DC0000221146406800F033BE000038B58469F8
:1040EC000A4B036005467CB16368013B63605BB9B6
:1040FC00236820469B689847A368013BA3601BB9C3
:10410C0023682046DB689847284638BD506B0D0065
:10411C0010B50446FFF7E2FF204610BD10B504466B
:10412C00FFF7DCFF20461C2102F0A3F8204610BD4F
:10413C0030B587B0264C274D01F06AFB01F031F900
:10414C0001F066FB244901F038F92449204601F0BE
:10415C0062F850232249A36304F1280001F05BF8B4
:10416C0001F0D0F90A22014602A801F078F802A960
:10417C00284601F048F802A800F0B4FF1949284677
:10418C0001F09BF8294604F13C00174D01F021F891
:10419C00164B00932A46164B1648214600F02AFB74
:1041AC0001F036FB144901F0F5F801F031FB0A225D
:1041BC00296801F05DF901F02BFB104901F0EAF8D8
:1041CC0001F026FB696801F0F8F807B030BD00BFBC
:1041DC0050E303203CE3032040670D005C670D00B7
:1041EC006B670D0080670D0024E3032086670D00CC
:1041FC006CDE032008DF03208A670D00A9670D0021
:10420C0030B58FB001F004FB444C454D01F0C9F8BA
:10421C0001F0FEFA434901F0D0F84349204600F082
:10422C00FAFF50234149A36304F1280000F0F3FF87
:10423C0001F068F90A22014606A801F010F806A957
:10424C000AA800F0D5FF3A490AA801F051F8014636
:10425C0002A800F0CDFF0AA800F044FF06A800F069
:10426C0041FF34490AA800F084FF334B0A22196835
:10427C0006A800F0E1FF06A90AA801F02DF80146F6
:10428C0002A801F016F806A800F02CFF0AA800F00E
:10429C0029FF2A490AA800F06CFF294B0A22196849
:1042AC0006A800F0C9FF06A90AA801F015F82549CF
:1042BC0001F01EF8244901F00FF8014602A800F0A5
:1042CC00F8FF06A800F00EFF0AA800F00BFF02A9E9
:1042DC0004F13C0000F07DFF1C4B00932A461C4B64
:1042EC001C48214600F086FA01F092FA1A4901F0B6
:1042FC0051F801F08DFA0A22296801F0B9F801F0A1
:10430C0087FA164901F046F801F082FA696801F063
:10431C0054F802A800F0E6FE0FB030BD50E30320C5
:10432C0024E3032040670D005C670D006B670D00F4
:10433C00CB670D00D4670D008CDE0320D9670D0010
:10434C0068DE0320DE670D00A8E3032086670D00FE
:10435C006CDE032008DF03208A670D00A9670D00BF
:10436C002DE9F843294C00231A461946606800F0E1
:10437C00EFFC00236068264C1A46194600F0C8FC76
:10438C000020266800F08EFB4FF0000980460027C5
:10439C00002000F087FBB0EB080061EB0901B9428B
:1043AC0008BFB04206D21948FFF792FE10B900F0D0
:1043BC00FFFCEDE71548FFF78BFE00F001FD002038
:1043CC00246800F06FFB002706460025002000F053
:1043DC0069FB801B61EB0701A94208BFA04202D216
:1043EC0000F0FEFC60B100F0FBFC0848FFF770FE2B
:1043FC00044600F0F5FC30B1002000F0F9FC02E0BE
:10440C0000F0D6FCE2E72046BDE8F88300E4032088
:10441C0068DE032008B501F0FBF94FF4165101F0EA
:10442C00EBF9FFF79DFF01F06DF8044B186001F0FC
:10443C00EFF90349BDE8084000F0BFBF38E30320A3
:10444C00E4670D0010B500F0C3FC00F0C9FC044695
:10445C0050B900F0C5FC0648234622462146406868
:10446C00BDE8104000F07CBC00F0A2FCEDE700BF02
:10447C0000E40320F0B58DB001F044F87F4B804D83
:10448C001E7828607F4C7EB901221A703146324664
:10449C000AA80A9600F00EFB0A9B1E2B04D10323DC
:1044AC00237008236680A380A388ADF82430764B54
:1044BC00206819682A68754C0890521A21688A423B
:1044CC001E460DDB00F08CFC08B9FFF749FFFFF727
:1044DC0097FE01F09DF96E4900F06FFF2B68336079
:1044EC0001F096F96B496C4F6C4E00F053FF01F0E4
:1044FC008FF9054608A800F04BFD0A220146284614
:10450C0000F0B6FF01F084F9054608A800F049FD5B
:10451C000A220146284600F0ABFF01F079F9054666
:10452C0008A800F037FD0A22014628465C4D00F031
:10453C009FFF01F06DF95B4900F02CFF01F068F969
:10454C000A22297800F094FF08A800F02AFD002820
:10455C0062D000F045FC08B9FFF702FFFFF7E8FD59
:10456C0001F056F9504900F028FF256800F0CAFF09
:10457C003B68C01A2D1AC82000F0D6FF01F048F98C
:10458C004A4900F007FF01F043F921680A2200F0C4
:10459C006FFF01F03DF9044600F0B4FF0A2201461A
:1045AC00204600F06FFF01F033F90A22396800F061
:1045BC0069FF01F02DF90A22294600F059FF01F09C
:1045CC0027F93B4900F0F9FEFFF73CFF002D16DA06
:1045DC0001F01EF9374900F0F0FE2C4B30681968D9
:1045EC000523ADF81A300CAB012203F8192D0290FB
:1045FC00019100920DF11A010AA800F0A3FC052309
:10460C00ADF81C300CAB3168012203F8182D029167
:10461C008DE8240007A92BE000F0E2FB30B901F093
:10462C00F7F8254900F0C9FEFFF79AFE00F06AFF83
:10463C0000232B70386001F0EBF81D4900F0BDFE33
:10464C0001F0E6F81D4900F0A5FEFFF7FBFEC820BF
:10465C0000F06AFF0523ADF81E300CAB2168306802
:10466C00012203F8172D0191029000920DF11E0109
:10467C000AA800F067FC0DB0F0BD00BF00DF0320FE
:10468C00A4E30320C0E3032038E303208CDE0320E3
:10469C00ED670D00FC670D00A0E303204CE3032045
:1046AC0064DE03200B680D0015680D001F680D00FB
:1046BC002C680D0041680D004C680D0062680D00FF
:1046CC00F8B5294B294E2A4C2A4F00251D6000F0C5
:1046DC00B1F92949304600F04CFD394622463046A6
:1046EC0001F0C2FD254B264E1D705D804FF6FF720A
:1046FC00244D9A80032000F0D5FA2946304600F06C
:10470C0038FD3046204E2246394601F0ADFD30468C
:10471C0000F046F830461D4E1D49224601F0A4FD1E
:10472C002946304600F025FD06F1100000F0C0FFD0
:10473C00294606F1280000F01CFD294606F13C0034
:10474C0000F017FD3046134E1349224601F08CFD44
:10475C002946301D00F00DFD224630460F49BDE8BC
:10476C00F84001F081BD00BF4CE30320A8E3032017
:10477C00FCDE0320F1500D0070680D0002DF0320F9
:10478C003CE30320DB680D0008DF032050E303202B
:10479C001D410D0024E30320C1400D00B3400D006A
:1047AC0010B5044601F07CFC204610BD38B504461B
:1047BC00154600F0EFFD0549204600F0EBFD2946BB
:1047CC002046BDE8384000F0F8BD00BFD2690D00AE
:1047DC0038B50446154600F0DDFD0549204600F0CD
:1047EC00D9FD294620460A22BDE8384000F040BEDB
:1047FC00D2690D002DE9F04F0D461E464FF0FF33E8
:10480C0089B00446136000212846924600F082FDD0
:10481C00D5F838C060B92968BCF1000F02D01FFA76
:10482C008CF200E050220023204601F089FA11E0BE
:10483C00704B029305F1140EBEE80F0003AF0FC7C7
:10484C00DEF800303B701FFA8CF2002302A92046E0
:10485C0001F0F8FA003018BF012018B9204601F019
:10486C006BFBC3E01299204600F094FD6249204690
:10487C0000F090FDA96A204600F08CFD5F492046AF
:10488C0000F088FD5E495F4A2046FFF78FFF00214C
:10489C00284600F03FFD20B92A685B492046FFF707
:1048AC0085FF05F13C070021384600F033FD08B9BF
:1048BC006A6C05E05549129801F088FE024618B959
:1048CC0053492046FFF784FF5EB1316849B17268E5
:1048DC00204612B1FFF76AFF01E000F06EFD0836CA
:1048EC00F3E7204600F05DFD204601F051F9002170
:1048FC00384600F00FFD18B9E96B204600F05DFD5D
:10490C0004F11C0B4FF480620021584601F02DFE7F
:10491C0000F0B0F8009000F0ADF8B5F84C8041F222
:10492C0088330026B8F1000F08BF98464FF00109F4
:10493C003546204601F018FBC0B3204601F0BDF906
:10494C00C7B200F097F80090B9F1000F18D00A2FF9
:10495C0011D10A2E13D104F1250001F0D5FD4FF031
:10496C000009CAF800004FF480620021584601F09B
:10497C00FCFD4D46DDE70D2F18BF3E4600E03E46E0
:10498C0040F2FE339D4202D863191F770CE040F2CF
:10499C00FF339D4208D14FF0000384F81B342046AE
:1049AC0001F0CAFA012702E00135C2E7074600F020
:1049BC0061F8009BC31A019327B9434502D8C8205C
:1049CC0000F0B2FD204601F0E4F820B1019B434514
:1049DC0001D8002FADD0204601F0AEFAB9F1000F8E
:1049EC0004D159460AF1040000F015FC09B0BDE8E9
:1049FC00F08F00BF586A0D00CE690D00D0680D0015
:104A0C00E2680D00DC680D00ED680D0001690D0019
:104A1C00F2680D0008B5024B1B689B68019308BD3A
:104A2C006802030008B5024B1B68DB68019308BDE4
:104A3C006802030008B5024B1B681B68019308BD94
:104A4C002C02030008B5024B1B68DB69019308BDFF
:104A5C003002030008B5024B1B685B69019308BD6B
:104A6C006C02030008B5024B1B685B68019308BD20
:104A7C001802030008B5024B1B685B69019308BD63
:104A8C001802030008B5024B1B68DB69019308BDD3
:104A9C001802030008B5024B1B689B6D019308BDFF
:104AAC001802030008B5024B1B68DB6D019308BDAF
:104ABC001802030008B5024B1B68DB6E019308BD9E
:104ACC003402030008B5024B1B689B68019308BDB8
:104ADC004802030008B5024B1B681B69019308BD13
:104AEC004802030008B5024B1B685B69019308BDC3
:104AFC004802030008B5024B1B681B6B019308BDF1
:104B0C004802030008B5024B1B685B6C019308BD9F
:104B1C004802030008B5024B1B685B69019308BD92
:104B2C006402030008B5024B1B681B6A019308BDA5
:104B3C006402030008B5024B1B689B6A019308BD15
:104B4C006402030008B5024B1B681B68019308BD87
:104B5C003C02030008B5024B1B68DB68019308BDDF
:104B6C003C02030008B5024B1B681B69019308BD8E
:104B7C003C02030008B5024B1B685B69019308BD3E
:104B8C003C02030008B5024B1B689B69019308BDEE
:104B9C003C02030008B5024B1B68DB69019308BD9E
:104BAC003C02030008B5024B1B689B6A019308BDCD
:104BBC003C02030008B5024B1B689B69019308BDBE
:104BCC003802030008B5024B1B68DB69019308BD72
:104BDC003802030008B5024B1B681B6A019308BD21
:104BEC003802030008B5024B1B689B6A019308BD91
:104BFC003802030008B5024B1B681B6B019308BD00
:104C0C003802030008B5024B1B689B6B019308BD6F
:104C1C003802030008B5024B1B681B68019308BDE2
:104C2C004C02030008B5024B1B685B68019308BD7E
:104C3C004C02030008B5024B1B681B69019308BDAD
:104C4C004C02030008B5024B1B685B69019308BD5D
:104C5C004C02030008B5024B1B689B69019308BD0D
:104C6C004C02030008B5024B1B68DB69019308BDBD
:104C7C004C02030008B5024B1B681B6A019308BD6C
:104C8C004C02030008B5024B1B681B6D019308BD59
:104C9C006002030008B5024B1B681B68019308BD3A
:104CAC002002030008B5024B1B685B68019308BD2A
:104CBC002002030008B5024B1B685B69019308BD19
:104CCC002002030008B5024B1B689B6D019308BDC5
:104CDC002002030008B5034B1B68D3F888300193FE
:104CEC0008BD00002002030008B5034B1B68D3F875
:104CFC009430019308BD00002002030008B5034B5B
:104D0C001B68D3F8A030019308BD000020020300FB
:104D1C0008B5024B1B685B68019308BD4002030099
:104D2C0008B5024B1B689B68019308BD4002030049
:104D3C0008B5024B1B68DB68019308BD40020300F9
:104D4C0008B5024B1B681B69019308BD40020300A8
:104D5C0008B5024B1B685B69019308BD4002030058
:104D6C0008B5024B1B689B69019308BD4002030008
:104D7C0008B5024B1B68DB69019308BD40020300B8
:104D8C0008B5024B1B681B6A019308BD4002030067
:104D9C0008B5024B1B681B6B019308BD4002030056
:104DAC0008B5024B1B685B6B019308BD4002030006
:104DBC0008B5024B1B689B68019308BD44020300B5
:104DCC0008B5024B1B68DB68019308BD4402030065
:104DDC0008B5024B1B681B69019308BD4402030014
:104DEC0008B5024B1B685B69019308BD44020300C4
:104DFC0008B5024B1B68DB6A019308BD4402030033
:104E0C0008B5024B1B681B6B019308BD44020300E1
:104E1C0008B5024B1B68DB6B019308BD4402030011
:104E2C0008B5024B1B681B68019308BD1C020300EC
:104E3C0008B5024B1B685B68019308BD1C0203009C
:104E4C0008B5024B1B689B68019308BD1C0203004C
:104E5C0008B5024B1B68DB6B019308BD1C020300F9
:104E6C00002211464068FFF78BBF002211464068B4
:104E7C00FFF796BF00224068FFF78ABF002281F03F
:104E8C0001014068FFF774BF00231A4619464068B9
:104E9C00FFF766BF00231A4619464068FFF758BF54
:104EAC00002211464068FFF74BBF002211464068B4
:104EBC00FFF736BF002202214068FFF739BF0023FD
:104ECC001A464068FFF724BF024B03225A60024A7D
:104EDC001A607047B8E3032010690D00704710B5D5
:104EEC001021044601F0C5F9204610BD70B5084BE1
:104EFC000360044600250E4640F80C5FFFF7FAFDF0
:104F0C0030462671FFF79EFDA560204670BD00BFA0
:104F1C0044690D0010B500240470448000294FF63C
:104F2C00FF74848007DD0139994209D232F81130BF
:104F3C008380012301E002D10223037010BD418064
:104F4C0010BD000070B586B016461A4600230293B9
:104F5C000C9B01930D460B9B009304460A9B314618
:104F6C002846FFF7CBFE33462A46014604A8FFF736
:104F7C00D1FF064B0498BDF8142018609A801A686B
:104F8C009B8822602046A38006B070BDC0E303203E
:104F9C00007870470078023801288CBF002001206F
:104FAC0070470078012802D0C31E58425841704700
:104FBC00044B00204FF6FF72187058809A80FFF750
:104FCC0071BE00BFC0E3032010B5044601F010FB16
:104FDC00013823182046984206D20278197800F836
:104FEC00011B03F80129F6E710BD2DE9F041931ED2
:104FFC00232B15468CB034BF15460A2500230A2DE9
:10500C000C468DF82C3007D1984205DA2D2301F18E
:10501C0001080B70404201E0B0B1A0460DF12B0627
:10502C0001272A46014601A801F080FA029B01984B
:10503C00092BCCBF3722302252FA83F306F8013900
:10504C0001370028EDD106E030238DF82B30A04637
:10505C000DF12A0602273A46711C404601F07AFAF5
:10506C0020460CB0BDE8F08170B50C46911E22298B
:10507C0020D82546294610B9234430220EE0B0FB37
:10508C00F2F602FB1600C1B205F8011B092894BF09
:10509C003031573105F8011C3046EBE7994202D20A
:1050AC0001F8012BFAE7002320460B70FFF78CFF69
:1050BC00204670BD002070BD38B5031E0C46154649
:1050CC000BDAB3F1004F4FF02D0214BF58421846C3
:1050DC0001230A702A46194400E00123FFF7C4FF9C
:1050EC00204638BD10B504460068FFF7A1FE2046E7
:1050FC0010BD10B50446006808B1FFF799FE0023F7
:10510C002360A360636010BD38B504460D4600688B
:10511C000131FFF795FE10B184E82100012038BD64
:10512C0010B50368044613B143688B4207D220467E
:10513C00FFF7EAFF20B1A3680BB9226813700120B6
:10514C0010BD70B50E46114604461546FFF7E8FF34
:10515C0018B92046FFF7CDFF09E02A463146A56075
:10516C00206801F0F7F92268A3680021D154204689
:10517C0070BD38B50023044603604360836003733D
:10518C000D4639B1084601F033FA2946024620464D
:10519C00FFF7D7FF204638BD38B5054600680C46EA
:1051AC0060B16A688B689A4206D3096801F018FAF4
:1051BC00A368AB6000230AE0FFF73AFE23682B607C
:1051CC0063686B60A368AB60002323606360A360BB
:1051DC0038BD884210B50B46044607D0096819B192
:1051EC009A68FFF7AEFF01E0FFF783FF204610BD82
:1051FC0010B5002304460360436083600373FFF71C
:10520C00E8FF204610BD884210B5044601D0FFF7D8
:10521C00C3FF204610BD38B505460C4641B10846C3
:10522C0001F0E6F9214602462846FFF78AFF01E025
:10523C00FFF75FFF284638BD10B5044600238AB03F
:10524C0023606360A3602373084601A9FFF734FF52
:10525C0001A92046FFF7DFFF20460AB010BD10B5AC
:10526C00044600238AB023606360A360237308465E
:10527C0001A9FFF7BAFE01A92046FFF7CCFF204693
:10528C000AB010BD70B504460E4609B9002070BDB9
:10529C006AB18368D5182946FFF742FF0028F5D07C
:1052AC002068A3683146184401F09AF9A5600120E2
:1052BC0070BD8A680968FFF7E5BF38B505460C462E
:1052CC00084641B101F094F9214602462846BDE852
:1052DC003840FFF7D7BF38BD10B58A680968044657
:1052EC00FFF7D0FF10B92046FFF703FF204610BD93
:1052FC0038B504460D4641B1084601F079F9294606
:10530C0002462046FFF7BEFF10B92046FFF7F1FE1C
:10531C00204638BD08B582680B4612B919B9012070
:10532C0008BD11B90368187802E0006801F04EF965
:10533C00B0FA80F0400908BD024800230360FFF773
:10534C00E1BB00BFC8E30320F8B506460D468F1835
:10535C000024BD420CD0336815F8011B9B68304605
:10536C009847002801DB0444F3E7002C08BF0446EF
:10537C002046F8BD70B505460C46084649B101F00B
:10538C0037F92B68024621462846DB68BDE8704099
:10539C00184770BD08B5FFF7EDFF08BD03689B68A3
:1053AC00184738B50D210546FFF7F8FF0A210446CA
:1053BC002846FFF7F3FF204438BD38B50546FFF704
:1053CC00D9FF04462846FFF7ECFF204438BD30B522
:1053DC008BB00B4600218DF82410012A98BF0A22AD
:1053EC000DF12304B3FBF2F505FB123303F0FF03BD
:1053FC00092B94BF30333733DBB2214604F8013923
:10540C002B46002DEED1FFF7B5FF0BB030BD10B41D
:10541C002AB903685DF8044B9B68C9B21847D2B22D
:10542C005DF8044BFFF7D3BFFFF7F1BF2DE9F04157
:10543C0007460E4615462AB90368C9B29B68BDE8F3
:10544C00F04118470A2A02D1002901DA04E0D2B24D
:10545C00BDE8F041FFF7BBBF2D21FFF79FFF2A46A8
:10546C00044671423846FFF7B2FF2044BDE8F08194
:10547C0038B50546FFF7DAFF04462846FFF791FFDB
:10548C00204438BD38B50546FFF7D0FF0446284602
:10549C00FFF787FF204438BD014B024A1A60704762
:1054AC00CCE30320BF690D0008B50020FFF7A8FC72
:1054BC0028B1FFF795FC80F00100C0B208BD0120B7
:1054CC0008BD10B50020FFF7E5FA044668B9FFF7F0
:1054DC00E1FB01280BD12046FFF7F4FB38B9FFF7AD
:1054EC00E3FF30B9FFF764FCF9E7012010BD0020A1
:1054FC0010BDFFF7D9FF0020FFF7CCFA003018BF22
:10550C00012010BD08B5FFF7DCFFBDE80840FFF730
:10551C00B9BA0000024B1A68024B1A60704700BF00
:10552C0090DE0320D0E303200021FFF7C3BB10B5AE
:10553C008368044613B1032201469847204610BDE8
:10554C0010B50446FFF7F3FF204610BD0348044A8C
:10555C0004490023836000F087BE00BFD4E303201E
:10556C00FCDE03204D550D0008B50C4B33B100F09B
:10557C004FF903681B699847002809DC084B63B195
:10558C0000F00CFA03681B699847002803DC08BD7F
:10559C00AFF30080F2E7AFF3008008BD000000001D
:1055AC000000000008B5FFF7DFFFFFF763FA014BBF
:1055BC00186008BD4CE7032007B5002300931A467A
:1055CC006FF07701FFF790FB03B05DF804FB000070
:1055DC0007B543880A2B08D0502B09D1094B1B68FF
:1055EC003BB103B05DF804EB1847FFF7E5FF06E0AD
:1055FC00002300931A466FF07701FFF775FB03B099
:10560C005DF804FBE4E3032010B5FFF72BFA044626
:10561C0000F0B4FF074B13B12046AFF3008000211C
:10562C000448FFF7F5FB00210348BDE81040FFF7E5
:10563C0051BB00BF00000000DD550D00704710B5D8
:10564C001821044600F015FE204610BDF0B5037D70
:10565C00062B8DB00E4600F104074FF0000402D06B
:10566C0000F1080518E00CAD394605F8304D2F2334
:10567C002A460A20FFF74EFA284600F0B9FF336895
:10568C000246DB682946304698470FE024B12E21AC
:10569C003046FFF783FE044415F8011D0A223046FC
:1056AC00FFF7C2FEBD420444F0D120460DB0F0BD60
:1056BC0010B5054B0446112240F8043B002100F0C4
:1056CC0054FF204610BD00BF586A0D000346074A20
:1056DC0010B543F8042B01F1100251F8044B43F8B8
:1056EC00044B9142F9D10A781A7010BD586A0D001A
:1056FC00037D042B01D1406808E0062B0AD14368D6
:10570C0053B9836843B9C36833B90069003018BF13
:10571C0001207047002070470120704710B59DF89C
:10572C00084044EA032343EA024242EA01610423AB
:10573C004160037510BD37B50D788B784A78C97800
:10574C0000912946FFF7EAFF03B030BD4174704762
:10575C00704708B50021007CFFF77CFA30EA200086
:10576C0028BF4FF0FF3008BD08B50121007CFFF7C2
:10577C0071FA30EA200028BF4FF0FF3008BD08B5A1
:10578C00007CFFF75FFA20EAE07008BD08B5007CEA
:10579C00FFF750FA20EAE07008BD007CFFF76ABA08
:1057AC0010B51421044600F064FD204610BD38B538
:1057BC000446007C0D46FFF745FA002801DC607CAE
:1057CC0028B12946207CFFF74DFA20EAE07038BD5D
:1057DC0010B50446002363604FF47A73A360054B45
:1057EC00236001230846217463741146FFF712FAF3
:1057FC00204610BD6C6A0D000022007CFFF712BA27
:10580C0010B514220446002100F0AFFE204610BD56
:10581C0030B50E4D87B001A8FFF7F2FF296811F0E3
:10582C00010410D12846FEF736FC60B101AA2146CE
:10583C000748FFF7CDFF2846FEF732FC054A06491C
:10584C00034800F011FD024807B030BDE8E3032027
:10585C00ECE30320FCDE03205D570D000022114613
:10586C004068FFF78DBA002211464068FFF798BADE
:10587C0000224068FFF78CBA002281F001014068D9
:10588C00FFF776BA00231A4619464068FFF768BA44
:10589C0000231A4619464068FFF75ABA00221146EF
:1058AC004068FFF73DBA002202214068FFF740BA7A
:1058BC0000231A464068FFF72BBA000038B5084C95
:1058CC0028252A460021204600F04FFE4FF0FF33DA
:1058DC006360044B258004225A60034A1A6038BD69
:1058EC0008E4032000E403209C6A0D007047417417
:1058FC00704708B5007CFFF755F920EAE07008BD49
:10590C0008B5007CFFF72EF920EAE07008BD08B559
:10591C00007CFFF737F930EA200028BF4FF0FF304A
:10592C0008BD08B5007CFFF725F930EA200028BF38
:10593C004FF0FF3008BD007CFFF72CB910B51421D7
:10594C00044600F096FC204610BD70B5457C04461C
:10595C000E4625B9007CFFF725F9002805DD3146F8
:10596C00207CBDE87040FFF7F5B8284670BD0000FC
:10597C0010B5044608461146002262604FF47A7254
:10598C00A260054A22600122207462741A46FFF755
:10599C00D9F8204610BD00BFD06A0D0038B50C4DAB
:1059AC00296811F0010411D12846FEF774FB68B187
:1059BC00084A094B09482146FFF7DAFF2846FEF74B
:1059CC006FFB074A0749054800F04EFC034838BDF9
:1059DC00C8E40320CCE4032044E4032030E4032097
:1059EC00FCDE0320F9580D00002211464068FFF739
:1059FC00C7B9002211464068FFF7D2B900224068AF
:105A0C00FFF7C6B9002281F001014068FFF7B0B979
:105A1C0000231A4601214068FFF7A2B900231A4659
:105A2C0019464068FFF794B9002211464068FFF709
:105A3C0087B9002211464068FFF772B90022022193
:105A4C004068FFF775B900231A464068FFF760B944
:105A5C0038B5054688B104684CB1A3681BB1032264
:105A6C002146204698471021204600F002FC28468B
:105A7C001421BDE8384000F0FCBB38BD10B1036800
:105A8C005B681847704710B503680446BBB158688B
:105A9C00FFF718F878B923685A7C12B95868FFF7E1
:105AAC0019F823685868FFF71DF820680023236055
:105ABC0028B1FFF7CDFF206808B1FFF7C9FF2046DA
:105ACC0010BD000038B50C4B03600446D0F8CC0177
:105ADC0008B1FEF7DEFAD4F8C45135B12846FFF709
:105AEC00D2FF0421284600F0C4FBA06808B1FFF7E0
:105AFC00C5FF204638BD00BF006B0D0038B50E4CFD
:105B0C000E4B23600025022304F5E4706360A5604E
:105B1C00C4F8C451C4F8C851FEF7F4FF084BC4F8DC
:105B2C00CC5184F8D05123602046064A0649BDE882
:105B3C00384000F099BB00BF50E50320B46B0D005A
:105B4C00006B0D00FCDE0320D15A0D0037B502AC02
:105B5C00036804F8011DDD6B01224FF0FF33214671
:105B6C00A84703B030BD10B40368DC6B4FF0FF33B3
:105B7C00A4465DF8044B604737B502AC036804F8E3
:105B8C00011DDD6B214613460122A84703B030BD31
:105B9C00704738B543691A68002A044605DAB3F829
:105BAC008620B3F884309A4201D001250BE00368BB
:105BBC001B699847002814BF0125002503D12368D1
:105BCC002046DB6A9847284638BD43691868C043AD
:105BDC00C00F704770470020704710B51421044661
:105BEC0000F047FB204610BDFEF751BA7FB51646B4
:105BFC0000224260029203925A1C04460D4608D0C1
:105C0C004FF47A72B3FBF2F1029102FB11314A4369
:105C1C00039260690823009341F205026B4440F63D
:105C2C00FF710068FEF7C6FF002808DB60690023DF
:105C3C00324629460068FEF7DDFF002804DAFFF73C
:105C4C0007F903686360002004B070BD10B50368E9
:105C5C0004469B689847A368013BA3602BB9236853
:105C6C002046DB68BDE81040184710BD70B50446EF
:105C7C004D69054B44F8043B8C3506460FCD0FC4DB
:105C8C002B682370304670BD586A0D0010B54369FF
:105C9C00B3F88620B3F884309A42044605D0626982
:105CAC00B2F884301344187910BD03681B69984707
:105CBC000028F4D14FF0FF3010BD10B54369B3F894
:105CCC008620B3F884309A42044608D06269B2F850
:105CDC008430591C1344A2F88410187910BD036841
:105CEC001B6998470028F1D14FF0FF3010BDF8B573
:105CFC0043691746B3F88620B3F884309A420546B8
:105D0C000E4606D103681B69984710B94FF0FF3453
:105D1C0014E06969B1F88430B1F88640E41ABC42E9
:105D2C0028BF3C46194422460431304600F012FC90
:105D3C006A69B2F884302344A2F884302046F8BD56
:105D4C002DE9F0439846036893B0DB6A0D4606468E
:105D5C001746984712AB002443F8484D224621467B
:105D6C002846FEF75FFE814600283DD1009B002BA4
:105D7C0056D05B69002B53D006A8FFF799FC009B0B
:105D8C005C696378022B01D1211D13E00A2B14D11D
:105D9C001122494601A800F0E8FBA36833BBE36875
:105DAC0023BB4FF6FF702569FEF7BCFE85421DD163
:105DBC0004F1140106A8FFF7BEFC06A8FFF798FC37
:105DCC0000282DD0336807ADD3F82090184B0C93D6
:105DDC000FCD0DAC0FC42B6823703A4643460CA96B
:105DEC003046C84781461BE0A14619E004F1080380
:105DFC0001AD1834186859682A4603C20833A34207
:105E0C001546F7D1062301A90CA80DAD8DF8143059
:105E1C00FFF75CFC0FCD07AC0FC42B682370CCE7ED
:105E2C000098FEF7F7FD484613B0BDE8F08300BFBD
:105E3C00586A0D0042690023A2F884304269A2F826
:105E4C00863070472DE9F0411E4603680C468AB037
:105E5C00DB6A054617469847237DD5F81480042B3A
:105E6C000CBF02200A2006220121FEF7CBFEC8F847
:105E7C0000006B691B68002B18DB2846FFF7DAFF64
:105E8C00D6B1002303A9F0B20393ADF81030FEF79E
:105E9C00E1FD58B968690623009341F20B0203AB8C
:105EAC0040F6FF710068FEF785FE28B12B68284686
:105EBC00DB6A002498473BE01C263246002103A8ED
:105ECC0000F053FB237D8DF80C60042B0CD10223C6
:105EDC0038468DF80D30FEF72DFEADF80E006068DB
:105EEC00FEF720FE049013E00A2338468DF80D309F
:105EFC00FEF720FE05AEADF80E00231D04F11407CD
:105F0C0018685968324603C20833BB421646F7D1AB
:105F1C006B691C2203A91868FEF75CFE0028C5D12A
:105F2C0004340FCC6D698C350FC523682B7001249C
:105F3C0020460AB0BDE8F08110B5436904461868E4
:105F4C00002801DBFEF73EFE63694FF0FF321A605A
:105F5C006069112200218C3000F007FB2046BDE85F
:105F6C001040FFF767BF000030B54269B2F88630C9
:105F7C008BB004461BB1B2F884209A4240D06369BE
:105F8C00186800283FDBB3F886507F2D3BD8191DCD
:105F9C00C5F1800208232944FEF724FE00280CDDFD
:105FAC006369B3F886200AB9A3F884206269B2F851
:105FBC0086301844A2F8860025E0FEF749FF0368F6
:105FCC000B2B20D0FEF744FF03680B2B1BD0202398
:105FDC00002502930395FEF73BFF036801930E4BDC
:105FEC00009302AA2B460D493220FEF74BFE636943
:105FFC001868FEF7E7FD63694FF0FF321A6002E0A4
:10600C00FFF718FFBBE76269B2F88630B2F884007C
:10601C00181A0BB030BD00BF9B6B0D00946B0D00BC
:10602C0010B5002304460160A0F88430A0F8863037
:10603C008830FFF73DFB204610BD00004FF47A720C
:10604C0070B500238260144A43600260436183612F
:10605C000446A0200E46FEF718F8054610B131464E
:10606C00FFF7DEFF1420FEF710F8034628B10122DB
:10607C0042608260094A02600561A0696561A361A2
:10608C0028B14368013B43600BB9FFF7DFFD2046A5
:10609C00FFF7D0FE204670BD506B0D00346B0D0029
:1060AC0010B54FF0FF310446FFF7C8FF204610BD76
:1060BC0010B504460068002801DBFEF783FD20467E
:1060CC0010BD10B504692046FFF7F2FF24B120463D
:1060DC00BDE81040FDF7DBBF10BD00231A46406839
:1060EC00FEF716BE002202214068FEF721BE0022F8
:1060FC0011464068FEF714BE002211464068FEF7B8
:10610C001FBE00231A4619464068FEF721BE002325
:10611C001A4619464068FEF723BE002281F00101A1
:10612C004068FEF725BE00224068FEF731BE002213
:10613C0011464068FEF734BE002211464068FEF757
:10614C001FBE2DE9F043002495B016460D460746B8
:10615C00FFF7AEFA214620220CA8009400F005FAB5
:10616C0040230C9321466B460CAA3046FEF75AFC92
:10617C000446002844D1024601216868FEF7E0FD80
:10618C000221804622466868FEF7DAFD009E8146B1
:10619C002146002E34D0002932D17368022B02D054
:1061AC000A2B09D02AE0B8F1000F27D071693846C4
:1061BC000431FFF7C0FA20E0B9F1000F1ED074696A
:1061CC00112201A800F0D1F906238DF8143001AD8D
:1061DC0004F108031834186859682A4603C20833B6
:1061EC00A3421546F7D101A906A807ADFFF76EFA31
:1061FC000FCD3C1D0FC42B6823700121F669C8E735
:10620C000098FEF707FC384615B0BDE8F083000097
:10621C00024B034A1A6000225A60704724E703209D
:10622C00B46B0D0070B50C4C0C4E0D4D002120467E
:10623C00FEF75CFE20460B4C3246294600F014F863
:10624C0001212046FEF752FE324629462046BDE883
:10625C00704000F009B800BF2CE70320FCDE0320DF
:10626C00E94E0D003CE703200B460146184600F0B2
:10627C004FB9FDF70CBF0000184B1A68D1075CBF73
:10628C0001221A60164B1A68D2075CBF01221A60F1
:10629C00144B1A68D0075CBF01221A60124B1A68A3
:1062AC00D1075CBF01221A60104B1A68D2075CBF81
:1062BC0001221A600E4B1A68D0075CBF01221A60CB
:1062CC000C4B1A68D1075CBF01221A600A4B1A6882
:1062DC00D2075CBF01221A60704700BF6CE7032035
:1062EC0068E7032064E7032060E703205CE70320F2
:1062FC0058E7032054E7032050E70320244B1A6887
:10630C00D0075CBF01221A60224B1A68D1075CBF10
:10631C0001221A60204B1A68D2075CBF01221A6056
:10632C001E4B1A68D0075CBF01221A601C4B1A68FE
:10633C00D1075CBF01221A601A4B1A68D2075CBFE6
:10634C0001221A60184B1A68D0075CBF01221A6030
:10635C00164B1A68D1075CBF01221A60144B1A68DD
:10636C00D2075CBF01221A60124B1A68D0075CBFBF
:10637C0001221A60104B1A68D1075CBF01221A6007
:10638C000E4B1A68D2075CBF01221A60704700BF1F
:10639C009CE7032098E7032094E7032090E7032071
:1063AC008CE7032088E7032084E7032080E70320A1
:1063BC007CE7032078E7032074E7032070E70320D1
:1063CC00244B1A68D0075CBF01221A60224B1A6852
:1063DC00D1075CBF01221A60204B1A68D2075CBF40
:1063EC0001221A601E4B1A68D0075CBF01221A608A
:1063FC001C4B1A68D1075CBF01221A601A4B1A6831
:10640C00D2075CBF01221A60184B1A68D0075CBF18
:10641C0001221A60164B1A68D1075CBF01221A6060
:10642C00144B1A68D2075CBF01221A60124B1A680F
:10643C00D0075CBF01221A60104B1A68D1075CBFF1
:10644C0001221A600E4B1A68D2075CBF01221A6037
:10645C00704700BFCCE70320C8E70320C4E7032044
:10646C00C0E70320BCE70320B8E70320B4E7032010
:10647C00B0E70320ACE70320A8E70320A4E7032040
:10648C00A0E70320184B1A68D1075CBF01221A60E1
:10649C00164B1A68D2075CBF01221A60144B1A689B
:1064AC00D0075CBF01221A60124B1A68D1075CBF7F
:1064BC0001221A60104B1A68D2075CBF01221A60C5
:1064CC000E4B1A68D0075CBF01221A600C4B1A687D
:1064DC00D1075CBF01221A600A4B1A68D2075CBF55
:1064EC0001221A60704700BFECE70320E8E70320A5
:1064FC00E4E70320E0E70320DCE70320D8E70320F0
:10650C00D4E70320D0E703200A22002100F0FEB8D4
:10651C0010B5054C13462CB10A4601460220AFF3C8
:10652C00008010BD204610BD00000000002910B5F1
:10653C0091FBF2F402FB141304DB002B07DA013499
:10654C009B1A04E0002BC4BF04F1FF349B180460B9
:10655C00436010BD10B5431E0A44914204D011F89B
:10656C00014B03F8014FF8E710BD02440346934278
:10657C0002D003F8011BFAE77047000038B5124B44
:10658C001C68A36B0546D3B91820FEF749FC43F2EF
:10659C000E33A06303804AF6CD33438041F234239B
:1065AC0083804EF26D63C3804DF6EC63038105234B
:1065BC0043810B23838101220023C0E90423A36BB5
:1065CC0000221D615A6138BDF8DE032010F8012B42
:1065DC0011F8013B012A28BF9A42F7D0D01A704714
:1065EC00034611F8012B03F8012B002AF9D170474F
:1065FC00034613F8012B002AFBD1181A01387047F7
:10660C002DE9F04780464048D0F800900F463D46B3
:10661C0015F8014B09EB0400407800F0080000F07D
:10662C00FF0608B12F46F2E72D2C03D1BD1C7C7858
:10663C00012603E02B2C04BF7C78BD1C13B1102B5E
:10664C000AD15BE0302C57D1287800F0DF005828B5
:10665C004DD16C7810230235002E14BF4FF0004C36
:10666C006FF0004C0027BCFBF3FA384603FB1ACC46
:10667C0009EB040E9EF801E01EF0040F01D0303C33
:10668C000BE01EF0030E1BD0BEF1010F0CBF4FF040
:10669C00370E4FF0570ECEEB0404A34210DDB7F1CA
:1066AC00FF3F0AD0504506D801D1644503DC03FBFB
:1066BC000040012701E04FF0FF3715F8014BD7E7F9
:1066CC007B1C0CD1002E4FF0220314BF4FF0004066
:1066DC006FF00040C8F800302AB9BDE8F08706B169
:1066EC00404272B107B1691E1160BDE8F0873024D9
:1066FC00002BB1D10823AFE70A23ADE7302CA3D090
:10670C00AAE7BDE8F08700BF94DE032013460A46D3
:10671C00014602480068FFF773BF00BFF8DE032094
:10672C001D400D0059400D0085400D0089400D00A5
:10673C00000000004170706C69636174696F6E3E9B
:10674C00095374617274206F66204C6F6F702E0049
:10675C0077732E757363756265642E636F6D002F8E
:10676C005061727469636C654469726563742E61FF
:10677C00737078002C372C313B0047455400417026
:10678C00706C69636174696F6E3E09526573706FEA
:10679C006E7365207374617475733A200041707068
:1067AC006C69636174696F6E3E0948545450205291
:1067BC006573706F6E736520426F64793A20002C9C
:1067CC005374617475732C002C73693A002C746FBC
:1067DC003A002C7665723A005374617274696E6774
:1067EC0000537461747573204D6573736167650034
:1067FC00536C65657020526573756C743A20004259
:10680C006F6F74696E673A200053656E6420446143
:10681C00746100536C65657020416761696E20007E
:10682C00446973636F6E6E656374696E67202E2E98
:10683C002E2E2E2E00476F6F64204E6967687400F1
:10684C005265636F6E6E656374696E672E2E2E2EA5
:10685C002E2E2E2E2E004E6F726D616C20536C6599
:10686C0065702000312E302E3000436F6E74656ED3
:10687C00742D54797065006170706C696361746912
:10688C006F6E2F6A736F6E00417574686F72697AE0
:10689C006174696F6E0042617369632079574E6A47
:1068AC005A584E7A4D6C56544D7A6F344D7A6B3033
:1068BC00526B646D62773D3D00416363657074009B
:1068CC002A2F2A0020485454502F312E300D0A0004
:1068DC00636C6F736500436F6E6E656374696F6E86
:1068EC0000484F535400436F6E74656E742D4C65A5
:1068FC006E67746800504F53540000000000000095
:10690C0000000000CB4E0D00C14E0D00B74E0D0027
:10691C00AD4E0D00A14E0D00954E0D00894E0D0093
:10692C00814E0D00774E0D006D4E0D004F610D0028
:10693C000000000000000000E94E0D00EB4E0D00C1
:10694C00626175640053657269616C0053657269AC
:10695C00616C31007479706500706172616D0063F7
:10696C006D6400696400686E64007374726D006617
:10697C00696C74006C766C0061646448616E646C64
:10698C0065720072656D6F766548616E646C6572D8
:10699C0000656E756D48616E646C657273004A5368
:1069AC004F4E53747265616D4C6F6748616E646CC9
:1069BC0065720061707000253031307520005D20EB
:1069CC00002C200028293A2000205B00636F6465AE
:1069DC00203D200025690064657461696C73203D5D
:1069EC00200066006C6E00666E00636F6465006468
:1069FC00657461696C006E6F6E65007472616365BD
:106A0C0000696E666F007761726E006572726F72EC
:106A1C000070616E696300616C6C005A00252B304C
:106A2C0033643A253032750025592D256D2D25649A
:106A3C005425483A254D3A2553257A0061736374E1
:106A4C00696D6500000000000000000059560D0043
:106A5C0049560D004B560D000000000000000000D0
:106A6C005D570D00AD570D00BB570D0055530D0074
:106A7C0099570D005F570D0075570D00A7570D0066
:106A8C008B570D0059570D0000000000000000004E
:106A9C00BD580D00B3580D00A9580D00DD400D0078
:106AAC009D580D0091580D0085580D007D580D0016
:106ABC0073580D0069580D004F610D000000000067
:106ACC0000000000F9580D0049590D0057590D00F0
:106ADC0055530D000D590D002F590D001B590D006C
:106AEC0043590D00FB580D00FF580D00000000002D
:106AFC0000000000535A0D00495A0D003F5A0D007A
:106B0C00355A0D00295A0D001D5A0D00115A0D0051
:106B1C00095A0D00FF590D00F5590D004F610D007C
:106B2C000000000000000000E15B0D00E75B0D00C1
:106B3C00CF600D00F55B0D00E35B0D000000000065
:106B4C0000000000E9400D0029410D00595B0D00CB
:106B5C00735B0D00755F0D00C75C0D00995C0D003B
:106B6C009D5B0D00515E0D004D5D0D00FB5C0D003D
:106B7C00455F0D009F5B0D00D75B0D00855B0D0025
:106B8C00F95B0D00795C0D00776972696E670072B4
:106B9C00656376206572726F72203D20256400005B
:106BAC000000000000000000E7600D00F1600D0027
:106BBC00FB600D0005610D000F610D001B610D00E8
:106BCC0027610D0033610D003B610D0045610D0027
:106BDC004F610D000020202020202020202028287C
:106BEC002828282020202020202020202020202081
:106BFC0020202020208810101010101010101010C1
:106C0C0010101010100404040404040404040410F0
:106C1C00101010101010414141414141010101017E
:106C2C000101010101010101010101010101010148
:106C3C001010101010104242424242420202020254
:106C4C000202020202020202020202020202020218
:106C5C0010101010200000000000000000000000C8
:106C6C000000000000000000000000000000000018
:106C7C000000000000000000000000000000000008
:106C8C0000000000000000000000000000000000F8
:106C9C0000000000000000000000000000000000E8
:106CAC0000000000000000000000000000000000D8
:106CBC0000000000000000000000000000000000C8
:106CCC0000000000000000000000000000000000B8
:106CDC0000000000000000000000000000000000A8
:106CEC000000000000000000000000000000000098
:106CFC000000000000000000000000000000000088
:106D0C000000000000000000000000000000000077
:106D1C000000000000000000000000000000000067
:106D2C000000000000000000000000000000000057
:106D3C00000000000000000043000000CD460D00E4
:106D4C00D54E0D00BD4F0D0045530D00A5540D0043
:106D5C0021550D0059550D00C9580D00095B0D004A
:106D6C001D620D0031620D0085620D0009630D007E
:106D7C00CD630D0091640D000000000000000000C8
:046D8C000000000003
:106D9000010000001027000076680D0083680D00D8
:106DA00094680D00A2680D00C5680D00CC680D0048
:106DB000000000000000000058020000486A0D00BA
:106DC000E06B0D0000000000E46C0D00046D0D0090
:106DD000246D0D0000000000000000000000000015
:106DE00000000000446D0D000000000000000000E5
:106DF0000000000000000000000000000000000093
:106E00000000000000000000000000000000000082
:106E10000000000000000000000000000000000072
:086E20000000000098DE0320D1
:106E2800FFFFFFFF00000102030405060708090A27
:106E38000B0C0D0E0F101112131415161718191A22
:086E48001B1C1D1E1F20280069
:046E5000785634122A
:04000003D000401CCD
:00000001FF
